{
  "contractName": "DefaultReserveInterestRateStrategy",
  "abi": [
    {
      "inputs": [
        {
          "internalType": "address",
          "name": "_reserve",
          "type": "address"
        },
        {
          "internalType": "contract LendingPoolAddressesProvider",
          "name": "_provider",
          "type": "address"
        },
        {
          "internalType": "uint256",
          "name": "_baseVariableBorrowRate",
          "type": "uint256"
        },
        {
          "internalType": "uint256",
          "name": "_variableRateSlope1",
          "type": "uint256"
        },
        {
          "internalType": "uint256",
          "name": "_variableRateSlope2",
          "type": "uint256"
        },
        {
          "internalType": "uint256",
          "name": "_stableRateSlope1",
          "type": "uint256"
        },
        {
          "internalType": "uint256",
          "name": "_stableRateSlope2",
          "type": "uint256"
        },
        {
          "internalType": "uint256",
          "name": "_optimalUtilizationRate",
          "type": "uint256"
        }
      ],
      "payable": false,
      "stateMutability": "nonpayable",
      "type": "constructor"
    },
    {
      "constant": true,
      "inputs": [],
      "name": "addressesProvider",
      "outputs": [
        {
          "internalType": "contract LendingPoolAddressesProvider",
          "name": "",
          "type": "address"
        }
      ],
      "payable": false,
      "stateMutability": "view",
      "type": "function"
    },
    {
      "constant": true,
      "inputs": [],
      "name": "baseVariableBorrowRate",
      "outputs": [
        {
          "internalType": "uint256",
          "name": "",
          "type": "uint256"
        }
      ],
      "payable": false,
      "stateMutability": "view",
      "type": "function"
    },
    {
      "constant": true,
      "inputs": [],
      "name": "excessUtilizationRate",
      "outputs": [
        {
          "internalType": "uint256",
          "name": "",
          "type": "uint256"
        }
      ],
      "payable": false,
      "stateMutability": "view",
      "type": "function"
    },
    {
      "constant": true,
      "inputs": [],
      "name": "optimalUtilizationRate",
      "outputs": [
        {
          "internalType": "uint256",
          "name": "",
          "type": "uint256"
        }
      ],
      "payable": false,
      "stateMutability": "view",
      "type": "function"
    },
    {
      "constant": true,
      "inputs": [],
      "name": "reserve",
      "outputs": [
        {
          "internalType": "address",
          "name": "",
          "type": "address"
        }
      ],
      "payable": false,
      "stateMutability": "view",
      "type": "function"
    },
    {
      "constant": true,
      "inputs": [],
      "name": "stableRateSlope1",
      "outputs": [
        {
          "internalType": "uint256",
          "name": "",
          "type": "uint256"
        }
      ],
      "payable": false,
      "stateMutability": "view",
      "type": "function"
    },
    {
      "constant": true,
      "inputs": [],
      "name": "stableRateSlope2",
      "outputs": [
        {
          "internalType": "uint256",
          "name": "",
          "type": "uint256"
        }
      ],
      "payable": false,
      "stateMutability": "view",
      "type": "function"
    },
    {
      "constant": true,
      "inputs": [],
      "name": "variableRateSlope1",
      "outputs": [
        {
          "internalType": "uint256",
          "name": "",
          "type": "uint256"
        }
      ],
      "payable": false,
      "stateMutability": "view",
      "type": "function"
    },
    {
      "constant": true,
      "inputs": [],
      "name": "variableRateSlope2",
      "outputs": [
        {
          "internalType": "uint256",
          "name": "",
          "type": "uint256"
        }
      ],
      "payable": false,
      "stateMutability": "view",
      "type": "function"
    },
    {
      "constant": true,
      "inputs": [],
      "name": "getBaseVariableBorrowRate",
      "outputs": [
        {
          "internalType": "uint256",
          "name": "",
          "type": "uint256"
        }
      ],
      "payable": false,
      "stateMutability": "view",
      "type": "function"
    },
    {
      "constant": true,
      "inputs": [],
      "name": "getVariableRateSlope1",
      "outputs": [
        {
          "internalType": "uint256",
          "name": "",
          "type": "uint256"
        }
      ],
      "payable": false,
      "stateMutability": "view",
      "type": "function"
    },
    {
      "constant": true,
      "inputs": [],
      "name": "getVariableRateSlope2",
      "outputs": [
        {
          "internalType": "uint256",
          "name": "",
          "type": "uint256"
        }
      ],
      "payable": false,
      "stateMutability": "view",
      "type": "function"
    },
    {
      "constant": true,
      "inputs": [],
      "name": "getStableRateSlope1",
      "outputs": [
        {
          "internalType": "uint256",
          "name": "",
          "type": "uint256"
        }
      ],
      "payable": false,
      "stateMutability": "view",
      "type": "function"
    },
    {
      "constant": true,
      "inputs": [],
      "name": "getStableRateSlope2",
      "outputs": [
        {
          "internalType": "uint256",
          "name": "",
          "type": "uint256"
        }
      ],
      "payable": false,
      "stateMutability": "view",
      "type": "function"
    },
    {
      "constant": true,
      "inputs": [
        {
          "internalType": "address",
          "name": "_reserve",
          "type": "address"
        },
        {
          "internalType": "uint256",
          "name": "_availableLiquidity",
          "type": "uint256"
        },
        {
          "internalType": "uint256",
          "name": "_totalBorrowsStable",
          "type": "uint256"
        },
        {
          "internalType": "uint256",
          "name": "_totalBorrowsVariable",
          "type": "uint256"
        },
        {
          "internalType": "uint256",
          "name": "_averageStableBorrowRate",
          "type": "uint256"
        }
      ],
      "name": "calculateInterestRates",
      "outputs": [
        {
          "internalType": "uint256",
          "name": "currentLiquidityRate",
          "type": "uint256"
        },
        {
          "internalType": "uint256",
          "name": "currentStableBorrowRate",
          "type": "uint256"
        },
        {
          "internalType": "uint256",
          "name": "currentVariableBorrowRate",
          "type": "uint256"
        }
      ],
      "payable": false,
      "stateMutability": "view",
      "type": "function"
    }
  ],
  "bytecode": "0x608060405234801561001057600080fd5b50604051610edd380380610edd833981810160405261010081101561003457600080fd5b81019080805190602001909291908051906020019092919080519060200190929190805190602001909291908051906020019092919080519060200190929190805190602001909291908051906020019092919050505086600260006101000a81548173ffffffffffffffffffffffffffffffffffffffff021916908373ffffffffffffffffffffffffffffffffffffffff160217905550856003819055508460048190555083600581905550826006819055508160078190555080600081905550610119816b033b2e3c9fd0803ce800000061016d60201b61082e1790919060201c565b60018190555087600860006101000a81548173ffffffffffffffffffffffffffffffffffffffff021916908373ffffffffffffffffffffffffffffffffffffffff160217905550505050505050505061027d565b60006101b583836040518060400160405280601e81526020017f536166654d6174683a207375627472616374696f6e206f766572666c6f7700008152506101bd60201b60201c565b905092915050565b600083831115829061026a576040517f08c379a00000000000000000000000000000000000000000000000000000000081526004018080602001828103825283818151815260200191508051906020019080838360005b8381101561022f578082015181840152602081019050610214565b50505050905090810190601f16801561025c5780820380516001836020036101000a031916815260200191505b509250505060405180910390fd5b5060008385039050809150509392505050565b610c518061028c6000396000f3fe608060405234801561001057600080fd5b50600436106100f55760003560e01c8063b258954411610097578063d5cd739111610066578063d5cd73911461030c578063dffd2b381461032a578063e21f792314610348578063f420240914610366576100f5565b8063b25895441461023c578063c72c4d101461025a578063ccab01a3146102a4578063cd3293de146102c2576100f5565b806334762ca5116100d357806334762ca51461015457806357e37af01461017257806365614f81146102005780637b832f581461021e576100f5565b80630b3429a2146100fa5780630bdf953f1461011857806314e32da414610136575b600080fd5b610102610384565b6040518082815260200191505060405180910390f35b61012061038e565b6040518082815260200191505060405180910390f35b61013e610394565b6040518082815260200191505060405180910390f35b61015c61039e565b6040518082815260200191505060405180910390f35b6101dc600480360360a081101561018857600080fd5b81019080803573ffffffffffffffffffffffffffffffffffffffff169060200190929190803590602001909291908035906020019092919080359060200190929190803590602001909291905050506103a8565b60405180848152602001838152602001828152602001935050505060405180910390f35b6102086106c6565b6040518082815260200191505060405180910390f35b6102266106cc565b6040518082815260200191505060405180910390f35b6102446106d2565b6040518082815260200191505060405180910390f35b6102626106d8565b604051808273ffffffffffffffffffffffffffffffffffffffff1673ffffffffffffffffffffffffffffffffffffffff16815260200191505060405180910390f35b6102ac6106fe565b6040518082815260200191505060405180910390f35b6102ca610704565b604051808273ffffffffffffffffffffffffffffffffffffffff1673ffffffffffffffffffffffffffffffffffffffff16815260200191505060405180910390f35b61031461072a565b6040518082815260200191505060405180910390f35b610332610734565b6040518082815260200191505060405180910390f35b61035061073a565b6040518082815260200191505060405180910390f35b61036e610740565b6040518082815260200191505060405180910390f35b6000600454905090565b60065481565b6000600754905090565b6000600354905090565b6000806000806103c1868861074a90919063ffffffff16565b9050600080821480156103d45750600089145b610402576103fd6103ee838b61074a90919063ffffffff16565b836107d290919063ffffffff16565b610405565b60005b9050600260009054906101000a900473ffffffffffffffffffffffffffffffffffffffff1673ffffffffffffffffffffffffffffffffffffffff16633618abba6040518163ffffffff1660e01b815260040160206040518083038186803b15801561046f57600080fd5b505afa158015610483573d6000803e3d6000fd5b505050506040513d602081101561049957600080fd5b810190808051906020019092919050505073ffffffffffffffffffffffffffffffffffffffff1663bb85c0bb8b6040518263ffffffff1660e01b8152600401808273ffffffffffffffffffffffffffffffffffffffff1673ffffffffffffffffffffffffffffffffffffffff16815260200191505060206040518083038186803b15801561052657600080fd5b505afa15801561053a573d6000803e3d6000fd5b505050506040513d602081101561055057600080fd5b8101908080519060200190929190505050935060005481111561061c57600061059860015461058a6000548561082e90919063ffffffff16565b6107d290919063ffffffff16565b90506105d56105b28260075461087890919063ffffffff16565b6105c76006548861074a90919063ffffffff16565b61074a90919063ffffffff16565b94506106146105ef8260055461087890919063ffffffff16565b61060660045460035461074a90919063ffffffff16565b61074a90919063ffffffff16565b935050610699565b610657610648610637600054846107d290919063ffffffff16565b60065461087890919063ffffffff16565b8561074a90919063ffffffff16565b9350610696610685600454610677600054856107d290919063ffffffff16565b61087890919063ffffffff16565b60035461074a90919063ffffffff16565b92505b6106b7816106a98a8a878b6108db565b61087890919063ffffffff16565b94505050955095509592505050565b60055481565b60045481565b60035481565b600260009054906101000a900473ffffffffffffffffffffffffffffffffffffffff1681565b60075481565b600860009054906101000a900473ffffffffffffffffffffffffffffffffffffffff1681565b6000600654905090565b60005481565b60015481565b6000600554905090565b6000808284019050838110156107c8576040517f08c379a000000000000000000000000000000000000000000000000000000000815260040180806020018281038252601b8152602001807f536166654d6174683a206164646974696f6e206f766572666c6f77000000000081525060200191505060405180910390fd5b8091505092915050565b600080600283816107df57fe5b049050610825836108176108086b033b2e3c9fd0803ce80000008861098590919063ffffffff16565b8461074a90919063ffffffff16565b610a0b90919063ffffffff16565b91505092915050565b600061087083836040518060400160405280601e81526020017f536166654d6174683a207375627472616374696f6e206f766572666c6f770000815250610a55565b905092915050565b60006108d36b033b2e3c9fd0803ce80000006108c56108a0858761098590919063ffffffff16565b60026b033b2e3c9fd0803ce8000000816108b657fe5b0461074a90919063ffffffff16565b610a0b90919063ffffffff16565b905092915050565b6000806108f1858761074a90919063ffffffff16565b9050600081141561090657600091505061097d565b60006109238561091588610b15565b61087890919063ffffffff16565b90506000610942856109348a610b15565b61087890919063ffffffff16565b9050600061097361095285610b15565b610965848661074a90919063ffffffff16565b6107d290919063ffffffff16565b9050809450505050505b949350505050565b6000808314156109985760009050610a05565b60008284029050828482816109a957fe5b0414610a00576040517f08c379a0000000000000000000000000000000000000000000000000000000008152600401808060200182810382526021815260200180610bfc6021913960400191505060405180910390fd5b809150505b92915050565b6000610a4d83836040518060400160405280601a81526020017f536166654d6174683a206469766973696f6e206279207a65726f000000000000815250610b35565b905092915050565b6000838311158290610b02576040517f08c379a00000000000000000000000000000000000000000000000000000000081526004018080602001828103825283818151815260200191508051906020019080838360005b83811015610ac7578082015181840152602081019050610aac565b50505050905090810190601f168015610af45780820380516001836020036101000a031916815260200191505b509250505060405180910390fd5b5060008385039050809150509392505050565b6000610b2e633b9aca008361098590919063ffffffff16565b9050919050565b60008083118290610be1576040517f08c379a00000000000000000000000000000000000000000000000000000000081526004018080602001828103825283818151815260200191508051906020019080838360005b83811015610ba6578082015181840152602081019050610b8b565b50505050905090810190601f168015610bd35780820380516001836020036101000a031916815260200191505b509250505060405180910390fd5b506000838581610bed57fe5b04905080915050939250505056fe536166654d6174683a206d756c7469706c69636174696f6e206f766572666c6f77a265627a7a72315820b04082d39262160e79de61926d86220287d3e6a634df281daf7dd3451227de8b64736f6c63430005100032",
  "source": "pragma solidity ^0.5.0;\n\nimport \"openzeppelin-solidity/contracts/math/SafeMath.sol\";\n\nimport \"../interfaces/IReserveInterestRateStrategy.sol\";\nimport \"../libraries/WadRayMath.sol\";\nimport \"../configuration/LendingPoolAddressesProvider.sol\";\nimport \"./LendingPoolCore.sol\";\nimport \"../interfaces/ILendingRateOracle.sol\";\n\n/**\n * @title DefaultReserveInterestRateStrategy contract\n * @notice implements the calculation of the interest rates depending on the\n * reserve parameters.\n * @dev if there is need to update the calculation of the interest rates for a\n * specific reserve,\n * a new version of this contract will be deployed.\n * @author Multiplier Finance\n **/\ncontract DefaultReserveInterestRateStrategy is IReserveInterestRateStrategy {\n    using WadRayMath for uint256;\n    using SafeMath for uint256;\n\n    /**\n     * @dev this value represents the utilization rate at which the pool aims\n     * to obtain most competitive borrow rates\n     * expressed in ray (e27)\n     **/\n    uint256 public  optimalUtilizationRate;\n\n    /**\n     * @dev this value represents the excess utilization rate above the\n     * optimal. It's always equal to\n     * 1-optimal utilization rate. Added as a constant here for gas optimizations\n     * expressed in ray (e27)\n     **/\n    uint256 public  excessUtilizationRate;\n\n    LendingPoolAddressesProvider public addressesProvider;\n\n    //base variable borrow rate when Utilization rate = 0. Expressed in ray\n    uint256 public baseVariableBorrowRate;\n\n    //slope of the variable interest curve when utilization rate > 0 and <=\n    // OPTIMAL_UTILIZATION_RATE. Expressed in ray\n    uint256 public variableRateSlope1;\n\n    //slope of the variable interest curve when utilization rate >\n    // OPTIMAL_UTILIZATION_RATE. Expressed in ray\n    uint256 public variableRateSlope2;\n\n    //slope of the stable interest curve when utilization rate > 0 and <=\n    // OPTIMAL_UTILIZATION_RATE. Expressed in ray\n    uint256 public stableRateSlope1;\n\n    //slope of the stable interest curve when utilization rate >\n    // OPTIMAL_UTILIZATION_RATE. Expressed in ray\n    uint256 public stableRateSlope2;\n    address public reserve;\n\n    constructor(\n        address _reserve,\n        LendingPoolAddressesProvider _provider,\n        uint256 _baseVariableBorrowRate,\n        uint256 _variableRateSlope1,\n        uint256 _variableRateSlope2,\n        uint256 _stableRateSlope1,\n        uint256 _stableRateSlope2,\n        uint256 _optimalUtilizationRate\n    ) public {\n        addressesProvider = _provider;\n        baseVariableBorrowRate = _baseVariableBorrowRate;\n        variableRateSlope1 = _variableRateSlope1;\n        variableRateSlope2 = _variableRateSlope2;\n        stableRateSlope1 = _stableRateSlope1;\n        stableRateSlope2 = _stableRateSlope2;\n        optimalUtilizationRate = _optimalUtilizationRate;\n        excessUtilizationRate = uint256(1e27).sub(_optimalUtilizationRate);\n\n        reserve = _reserve;\n    }\n\n    /**\n    @dev accessors\n     */\n\n    function getBaseVariableBorrowRate() external view returns (uint256) {\n        return baseVariableBorrowRate;\n    }\n\n    function getVariableRateSlope1() external view returns (uint256) {\n        return variableRateSlope1;\n    }\n\n    function getVariableRateSlope2() external view returns (uint256) {\n        return variableRateSlope2;\n    }\n\n    function getStableRateSlope1() external view returns (uint256) {\n        return stableRateSlope1;\n    }\n\n    function getStableRateSlope2() external view returns (uint256) {\n        return stableRateSlope2;\n    }\n\n    /**\n     * @dev calculates the interest rates depending on the available liquidity\n     * and the total borrowed.\n     * @param _reserve the address of the reserve\n     * @param _availableLiquidity the liquidity available in the reserve\n     * @param _totalBorrowsStable the total borrowed from the reserve a stable\n     * rate\n     * @param _totalBorrowsVariable the total borrowed from the reserve at a\n     * variable rate\n     * @param _averageStableBorrowRate the weighted average of all the stable\n     * rate borrows\n     * @return the liquidity rate, stable borrow rate and variable borrow rate\n     * calculated from the input parameters\n     **/\n    function calculateInterestRates(\n        address _reserve,\n        uint256 _availableLiquidity,\n        uint256 _totalBorrowsStable,\n        uint256 _totalBorrowsVariable,\n        uint256 _averageStableBorrowRate\n    )\n        external\n        view\n        returns (\n            uint256 currentLiquidityRate,\n            uint256 currentStableBorrowRate,\n            uint256 currentVariableBorrowRate\n        )\n    {\n        uint256 totalBorrows = _totalBorrowsStable.add(_totalBorrowsVariable);\n\n        uint256 utilizationRate =\n            (totalBorrows == 0 && _availableLiquidity == 0)\n                ? 0\n                : totalBorrows.rayDiv(_availableLiquidity.add(totalBorrows));\n\n        currentStableBorrowRate = ILendingRateOracle(\n            addressesProvider.getLendingRateOracle()\n        )\n            .getMarketBorrowRate(_reserve);\n\n        if (utilizationRate > optimalUtilizationRate) {\n            uint256 excessUtilizationRateRatio =\n                utilizationRate.sub(optimalUtilizationRate).rayDiv(\n                    excessUtilizationRate\n                );\n\n            currentStableBorrowRate = currentStableBorrowRate\n                .add(stableRateSlope1)\n                .add(stableRateSlope2.rayMul(excessUtilizationRateRatio));\n\n            currentVariableBorrowRate = baseVariableBorrowRate\n                .add(variableRateSlope1)\n                .add(variableRateSlope2.rayMul(excessUtilizationRateRatio));\n        } else {\n            currentStableBorrowRate = currentStableBorrowRate.add(\n                stableRateSlope1.rayMul(\n                    utilizationRate.rayDiv(optimalUtilizationRate)\n                )\n            );\n            currentVariableBorrowRate = baseVariableBorrowRate.add(\n                utilizationRate.rayDiv(optimalUtilizationRate).rayMul(\n                    variableRateSlope1\n                )\n            );\n        }\n\n        currentLiquidityRate = getOverallBorrowRateInternal(\n            _totalBorrowsStable,\n            _totalBorrowsVariable,\n            currentVariableBorrowRate,\n            _averageStableBorrowRate\n        )\n            .rayMul(utilizationRate);\n    }\n\n    /**\n     * @dev calculates the overall borrow rate as the weighted average between the total variable borrows and total stable borrows.\n     * @param _totalBorrowsStable the total borrowed from the reserve a stable\n     * rate\n     * @param _totalBorrowsVariable the total borrowed from the reserve at a\n     * variable rate\n     * @param _currentVariableBorrowRate the current variable borrow rate\n     * @param _currentAverageStableBorrowRate the weighted average of all the\n     * stable rate borrows\n     * @return the weighted averaged borrow rate\n     **/\n    function getOverallBorrowRateInternal(\n        uint256 _totalBorrowsStable,\n        uint256 _totalBorrowsVariable,\n        uint256 _currentVariableBorrowRate,\n        uint256 _currentAverageStableBorrowRate\n    ) internal pure returns (uint256) {\n        uint256 totalBorrows = _totalBorrowsStable.add(_totalBorrowsVariable);\n\n        if (totalBorrows == 0) return 0;\n\n        uint256 weightedVariableRate =\n            _totalBorrowsVariable.wadToRay().rayMul(_currentVariableBorrowRate);\n\n        uint256 weightedStableRate =\n            _totalBorrowsStable.wadToRay().rayMul(\n                _currentAverageStableBorrowRate\n            );\n\n        uint256 overallBorrowRate =\n            weightedVariableRate.add(weightedStableRate).rayDiv(\n                totalBorrows.wadToRay()\n            );\n\n        return overallBorrowRate;\n    }\n}\n",
  "sourcePath": "/Users/dev/Documents/Project/MCLendNew/MCL-SmartContracts/lending/contracts/lendingpool/DefaultReserveInterestRateStrategy.sol",
  "compiler": {
    "name": "solc",
    "version": "0.5.16+commit.9c3226ce.Emscripten.clang"
  },
  "schemaVersion": "3.2.3",
  "updatedAt": "2021-04-19T07:43:40.327Z",
  "devdoc": {
    "author": "Multiplier Finance*",
    "details": "if there is need to update the calculation of the interest rates for a specific reserve, a new version of this contract will be deployed.",
    "methods": {
      "calculateInterestRates(address,uint256,uint256,uint256,uint256)": {
        "details": "calculates the interest rates depending on the available liquidity and the total borrowed.",
        "params": {
          "_availableLiquidity": "the liquidity available in the reserve",
          "_averageStableBorrowRate": "the weighted average of all the stable rate borrows",
          "_reserve": "the address of the reserve",
          "_totalBorrowsStable": "the total borrowed from the reserve a stable rate",
          "_totalBorrowsVariable": "the total borrowed from the reserve at a variable rate"
        },
        "return": "the liquidity rate, stable borrow rate and variable borrow rate calculated from the input parameters*"
      },
      "getBaseVariableBorrowRate()": {
        "details": "accessors"
      }
    },
    "title": "DefaultReserveInterestRateStrategy contract"
  },
  "userdoc": {
    "methods": {},
    "notice": "implements the calculation of the interest rates depending on the reserve parameters."
  }
}